:100000008BEC00F091EC00F00000CEB73BEF00F07D
:10001000D16AD186EFECFFF0CEB63BEF00F0D16AAB
:10002000D180D182EFECFFF0CEB63BEF00F0D16A89
:10003000D182D184D18CEFECFFF0CEB63BEF00F053
:10004000D16AD180D18AEFECFFF0CEB63BEF00F061
:10005000D16AD182D184EFECFFF0CEB63BEF00F055
:10006000D16AD182D184D186EFECFFF0CEB63BEFDE
:1000700000F008EF00F0D16AD18CEFECFFF0CEA6D3
:1000800008EF00F0D168D192D194EFECFFF0CEA64A
:1000900008EF00F0D16AD184D18AEFECFFF0CEA650
:1000A00008EF00F0D16AD188D18AEFECFFF0CEA63C
:1000B00008EF00F0D16AD180D186D188EFECFFF053
:1000C000CEA608EF00F0D16AD182D188EFECFFF024
:1000D000CEA608EF00F0D16AD182EFECFFF0CEA6F9
:1000E00008EF00F0D168D190D192D194EFECFFF0FD
:1000F000CEA608EF00F0D16AEFECFFF0CEA608EF35
:1001000000F0D16AD186D188EFECFFF0CEA608EFDF
:1001100000F03BEF00F00001600EAD6F020EB16F1A
:1001200012000401BE6B006BC68701870401D16910
:06013000186BC96B120000
:020000040001F9
:10FFDA0000EF00F0040E026EFA0E016EF90E006ECA
:10FFEA000000002EF5EFFFF0012EF3EFFFF0022ED6
:06FFFA00F1EFFFF0120020
:020000040030CA
:10000000EC0D27C79FFFFFFFFFFFFFFFFFFFFFFF75
:10001000FFFFFFFFFFFFFFFFFFFFFFFFFFFFFFFFF0
:03002000FFFFFFE0
:00000001FF
