:0400000016EF00F007
:10000800B8A030EF00F0BDEF00F0B890B490100049
:10001800AFA014EF00F0AF9028EF00F0D06AAF90D7
:10002800AF90100060ED00F066ED00F07BED00F0A1
:1000380085ED00F020EF00F0C376A2ED00F0C37666
:10004800A2ED00F020EF00F0050E056E0A0E046E1A
:10005800000E036E49EF00F0B4A009EF00F035EF91
:1000680000F0B490B8B0BDEF00F0B4A036EF00F0E7
:1000780009EF00F0F926810C420C240C180C000C36
:10008800180C240C420C810C000CC3860401000ED1
:10009800FB6F000EFA6F03443EEC00F0C06E96ED65
:1000A80000F0042E5DEF00F0052E2AEF00F012EFAD
:1000B80000F0032A49EF00F00001600EAD6F020E58
:1000C800B16F12000401CE6B006BC6870187040173
:1000D800CF6B086BC78909890401D06B106BC86B9B
:1000E8000401D36A286BCB85CB97298512000201BE
:1000F800030E3E6F02010C0E3F6F02012A0E406F85
:100108001200D68A0301639168936C93D690AF90DE
:100118009F80D692B490A480D694B890A880D68EAA
:10012800D68C1200FA0E016EF90E006E0000002E39
:100138009AEF00F0012E98EF00F01200020E026E06
:10014800FA0E016EF90E006E0000002EA8EF00F006
:10015800012EA6EF00F0022EA4EF00F01200140EFC
:10016800006E0000002EB5EF00F0012EB3EF00F096
:040178001200B89029
:020000040030CA
:10000000EC0D27C79FFFFFFFFFFFFFFFFFFFFFFF75
:10001000FFFFFFFFFFFFFFFFFFFFFFFFFFFFFFFFF0
:03002000FFFFFFE0
:00000001FF
